:100000000C94A9020C94F0020C94F0020C94F002EF
:100010000C94F0020C94F0020C94F0020C94F00298
:100020000C94F0020C94F0020C9402220C94D62250
:100030000C949B190C94F0020C94F0020C94F002B6
:100040000C94F0020C94F0020C94F0020C94F00268
:100050000C94F0020C94F2190C94F0020C94F0023F
:100060000C94F0020C94F0020C94F0020C94F00248
:100070000C94F0020C94F0020C94F0020C94F00238
:100080000C94F0020C94F0020C94F0020C94F00228
:100090000C94F0020C94F0020C94F0020C94F00218
:1000A0000C94F0020C94F0020C94F00235001E0047
:1000B0001F00200021002200230000002400250052
:1000C000260027002D002E002A002A0029002B00E0
:1000D00014001A0008001500170000001C0018008A
:1000E0000C00120013002F00300031004B003900CB
:1000F00004001600070009000A0000000B000D00B4
:100100000E000F0033003400280000004E00E10014
:100110001D001B000600190005000000050011006D
:100120001000360037003800E500E3000000E00072
:100130000000E20000002C002C41000000002C0018
:100140000000E600000000000000E40001003A00AA
:100150003B003C003D003E003F00000040004100ED
:10016000420043004400450001000100010001007D
:100170000100520001000100010000000100010027
:100180000100010001000100010001000100010067
:10019000500051004F00010001000000010001006B
:1001A000010001000100010001000000005C0100ED
:1001B0000100010001000100010000000100010038
:1001C0000100010001000100010001000000010028
:1001D000000001000000010001000000000001001B
:1001E000000001000000000000000100010001000B
:1001F00001000100010001000100000001000100F8
:1002000001000100010001000100010001000100E6
:1002100001000100010001000100000001000100D7
:1002200001000100010001000100010001000100C6
:1002300001000100010001000100000001000100B7
:1002400001000100010001000100000001000100A7
:100250000100010001000100010000000100010097
:100260000100010001000100010001000000010087
:10027000000001000000010001000000000001007A
:10028000000001000000000000000100010001006A
:100290000100010001000100010000000100010057
:1002A0000100010001000100010001000100010046
:1002B0000100010001000100010000000100010037
:1002C0000100010001000100010001000100010026
:1002D0000100010001000100010000000100010017
:1002E0000100010001000100010000000100010007
:1002F00001000100010001000100000001000100F7
:1003000001000100010001000100010000000100E6
:1003100000000100000001000100000000000100D9
:1003200000000100000000000000010000000000CB
:10033000000000002A2B2800000000000000000040
:100340000000000000000029000000002C1E3420E6
:10035000212224342627252E362D3738271E1F200C
:100360002122232425263333362E37381F04050651
:100370000708090A0B0C0D0E0F1011121314151695
:100380001718191A1B1C1D2F3130232D3504050693
:100390000708090A0B0C0D0E0F1011121314151675
:1003A0001718191A1B1C1D2F3130354C0000000086
:1003B000000000000000000000000000000000003D
:1003C0007E0F00D4FFFFFFC7000000780403300059
:1003D0000000160341006C006900630065004300E3
:1003E0006C006F006E0065000000120353006E0089
:1003F000650061006B0062006F007800000004037C
:10040000090409025B00030100A0FA0904000001CD
:1004100003010100092111010001224000070581AB
:100420000308000A09040100020300000009211169
:1004300001000122220007058203200001070503B5
:10044000032000010904020001030000000921113A
:100450000100012281000705840320000A12011017
:1004600001000000084253010001000102030106DF
:1004700060FF0961A1010962150026FF0095207542
:100480000881020963150026FF0095207508910276
:10049000C005010902A10185020901A10005091990
:1004A0000129051500250195057501810295017544
:1004B0000381010501093009311581257F950275F8
:1004C00008810609381581257F9501750881060583
:1004D0000C0A38021581257F950175088106C0C078
:1004E00005010980A101850319012AB7001501261C
:1004F000B700950175108100C0050C0901A10185A7
:100500000419012AA002150126A002950175108187
:1005100000C005010906A101050719E029E715003A
:10052000250195087501810295017508810105076E
:10053000190029FF150026FF0095067508810005A2
:100540000819012905950575019102950175039119
:1005500001C011241FBECFEFDAE0DEBFCDBF04B66D
:1005600003FE27C08091870290918802A0918902A2
:10057000B0918A028730904BA740B04BD1F41092D3
:100580008702109288021092890210928A0214BE89
:1005900084B7877F84BF0FB6F894A89580916000D8
:1005A000886180936000109260000FBEE0E0F8E385
:1005B000099511E0A0E0B1E0E8E7FAE402C0059097
:1005C0000D92A83AB107D9F722E0A8EAB1E001C03C
:1005D0001D92A738B207E1F70E94B81E0C94FF24C1
:1005E0000C940000579A569A549A0C949D0DCF93F0
:1005F000C82F0E949904882349F0C0FF09C05F9A60
:10060000C1FF08C05E9AC2FF07C05C9ACF910895EF
:100610005F98F6CF5E98F7CF5C98F8CF823030F4D1
:1006200089EA611101C08AEA0C94650F089581E09E
:10063000089581E008950C94190308950C941D0306
:100640001F93CF93DF9300D000D00F92CDB7DEB7CA
:1006500049835A836B833091C30189819A81311117
:100660001DC06623B9F02223A9F00E940617182F97
:10067000682F89819A810E94B11669817A81812FC0
:100680000F900F900F900F900F90DF91CF911F91CF
:100690000C947A0A0E94DE16182FEFCF0E940617DC
:1006A00069817A81EDCFFC01262F408151816281E1
:1006B000738184810C942003CF93DF93EC0160E07D
:1006C0000E945303BE01DF91CF910C941E03FF9251
:1006D0000F931F93CF93DF93E82FF0E0E45DFC4F7F
:1006E000F490C82FC695C695C695D0E0FE01E45497
:1006F000FC4F0491877010E0082E02C015950795F5
:100700000A94E2F701701127C455DC4FFE01C49131
:10071000D0E002C0D595C7958A95E2F7C170DD2774
:100720000115110519F081EE0E947D0E209719F038
:1007300086EE0E947D0E8F2D0E94650FCD2B19F045
:1007400086EE0E940F0F012B41F081EEDF91CF91D9
:100750001F910F91FF900C940F0FDF91CF911F917C
:100760000F91FF900895EF92FF920F931F93CF93F5
:10077000DF93EC01162F0AE08881882309F456C024
:10078000813009F050C08981813061F47E0122E01E
:10079000E20EF11CCA818C2F0E947D0E8C2F0E94CC
:1007A0000F0F09C0823099F47E0182E0E80EF11C3F
:1007B0008A810E947D0EE7012196812F8150E0F20F
:1007C000EFE9FFE03197F1F700C00000F7CF833089
:1007D00031F47E01E2E0EE0EF11C8A81E0CF84303C
:1007E00011F02196E9CF2A81229690E080E0AE01B7
:1007F0004F5F5F4F2053330B2A30310548F001978C
:10080000D8F2EFE9FFE03197F1F700C00000F7CF31
:10081000089FB001099F700D1124C901860F971F11
:100820002981EA01E4CF0E946703C6CFDF91CF910F
:100830001F910F91FF90EF90089560E00C94B30327
:100840008F929F92AF92BF92CF92DF92EF92FF92E0
:100850000F931F936B017C0181E090E0A0E0B0E07A
:100860004C015D0104C0880C991CAA1CBB1C4A9554
:10087000D2F7B501A4014C015D0104C0880C991C9C
:10088000AA1CBB1C2A95D2F7482959296A297B2919
:1008900004C0880F991FAA1FBB1F0A95D2F78A01AF
:1008A0009B010C211D212E213F210417150726072E
:1008B000370789F48C299D29AE29BF29BC01CD01B8
:1008C0001F910F91FF90EF90DF90CF90BF90AF906E
:1008D0009F908F90089580959095A095B0958C21CC
:1008E0009D21AE21BF21EACF0F93382F262F609193
:1008F0002E0270912F028091300290913102042FCC
:10090000432F0E9420040F910C94EF150E943C1A73
:100910000E945018811102C00E94ED180E940D081B
:100920000C94F1060E941E080C94F40608950C9491
:10093000960481E00895CF93C82F0E9497048C2FCE
:10094000CF910C94F70208950E941B120E94A304F9
:100950002FEF84E39CE0215080409040E1F700C0FD
:1009600000000C94161A0F931F93CF93DF93EC01A2
:1009700061E00E9453038C01BE010E94B0088823ED
:1009800059F1BE01C8010E941B03882329F1BE0151
:10099000C8010E94B20B8823F9F0BE01C8010E9471
:1009A000F30B8823C9F0BE01C8010E94160D8823ED
:1009B00099F08A81882339F001158CE5180751F0E8
:1009C0000E3D1C4579F0CE01DF91CF911F910F9123
:1009D0000C9417030E94A40480E0DF91CF911F9133
:1009E0000F9108950E94ED18F7CF90E080E00895F0
:1009F0000895FC01EE0FFF1FE453FC4F8591949185
:100A00000895CF93DF930E947A0A0E941606EC01A4
:100A1000811520E5920708F042C0811530E4930764
:100A200008F0BDC0883E910528F5803E910508F08C
:100A30009DC0883A910588F4853A910508F08FC0E9
:100A40008130910509F492C0009709F48FC0049792
:100A500008F08CC0D0E0C0E089C08F3B910508F45D
:100A600089C0805C9109C03CD105A0F30E94F904C3
:100A7000EC017CC08115904250F4C11581E0D8078B
:100A800008F074C0C03FD10528F3D0656FC0C11510
:100A900090E3D90708F079C0CE019F70E7CF8115A8
:100AA00025E5920758F5811534E5930708F0A6C0AF
:100AB000811542E5940750F4C11581E5D80708F483
:100AC00071C0DC2FCC27C16FD06A50C0982F96958B
:100AD00096959E0123703327C115D34508F07FC03A
:100AE000C1E0D0E002C0CC0FDD1F2A95E2F720E282
:100AF000929FC0011124C82BD92B6FC0C11589E565
:100B0000D807A8F4C11598E5D90708F07CC0C1152D
:100B100026E5D20708F09ECF8C2F0E94AD06C82F85
:100B2000D0E0DC2FCC27CC27DF71D0621FC0C115ED
:100B30003AE5D30708F46CC0CE0190568115904277
:100B400008F088CF8D2F8F710E94AD0690E0982F0E
:100B5000882788279F719C012C2BE901E6CFC55A75
:100B6000D0E0CD5BDE4FC881D0E0D064CE01DF9114
:100B7000CF910895C85AD0E0CC0FDD1FCB5EDE4F79
:100B80000990D881C02DD464F1CFCE019927D3FF2D
:100B900003C0EC01D86CEACFEC01D06CE7CFDF707A
:100BA000D06AE4CFCE01E4E096958795EA95E1F727
:100BB00083702C2F26952695237090E2299F900113
:100BC0001124382B8C2F8370C1E0D0E002C0CC0FF1
:100BD000DD1F8A95E2F7C22BD32BDC68C7CFC1E0BB
:100BE000D0E002C0CC0FDD1F2A95E2F730E2939FE0
:100BF000C0011124C82BD92BDA68B8CFD82FCC2745
:100C0000C46FD06AB3CFDC2FCC27C06FD06AAECF11
:100C10008C2F8F700E94AD0634E0D695C7953A951B
:100C2000E1F7CF709C2FEC01D069A0CF82389105FD
:100C3000B1F1B0F48133910509F475C048F48932FB
:100C4000910509F469C08A32910509F473C00895C9
:100C50008533910509F459C08933910501F108954F
:100C6000833E9105A9F138F4803E9105F9F0823E6A
:100C7000910549F10895863E9105A9F1873E9105B8
:100C8000C9F1843E910519F52091790221FF1FC019
:100C90008091780284FD14C087EE90E00895209141
:100CA00078022370A1F080EE90E008952091780200
:100CB00020FD47C03091790230FF09C024FF44C0B5
:100CC00090E080E004C02091780222FDF7CF0895E3
:100CD0002091780222FD3BC03091790230FDE3CFB4
:100CE00024FFF5CFEDCF2091780223FFF0CF24FD34
:100CF000E7CFD2CF2091780223FD2CC0309179022A
:100D000031FFEECF84EE90E008952091780225FF28
:100D1000DECF89E290E008952091780225FFD7CFB9
:100D200085E390E008952091780226FFD0CF8AE2F3
:100D300090E008952091780226FFC9CF81E390E0EA
:100D4000089589E390E0089583EE90E0089582EE9F
:100D500090E0089586EE90E008959091780292FFD9
:100D600006C0282F28712830F9F4877F846093FF0C
:100D700006C0282F28712831F1F4877E84612091E4
:100D8000790220FF06C0382F38713830D9F4877FB8
:100D9000816021FF06C0282F28712831D1F4877E79
:100DA000816194FD877E0895282F24712430F9F6FF
:100DB0008B7F8860DCCF282F2471243101F78B7E54
:100DC0008861DDCF382F3171313019F78E7F88601F
:100DD000E0CF282F2171213121F78E7E8861E1CF6C
:100DE00008950C94F00608950C94F306E82FF0E0B3
:100DF000E859FD4F80810895089580EA8A95F1F7BA
:100E00000895AEE4B1E061E070E08D91E82FE295E5
:100E1000EF70F0E041A18F709B0101C0220F8A9515
:100E2000EAF7922F9095942391A382A1822B82A31B
:100E300081E0A835B80749F7A6E4B1E061E070E0C9
:100E40008D91E82FE295EF70F0E041A18F709B014A
:100E500001C0220F8A95EAF7922F9095942391A3CF
:100E600082A1822B82A381E0AE34B80749F7EEE578
:100E7000F2E0A8E6B2E088E692E011921D928E17A9
:100E80009F07D9F78AE00E94D4070C9486044F92FA
:100E90005F927F928F929F92AF92BF92CF92DF929A
:100EA000EF92FF920F931F93CF93DF930EE512E023
:100EB0009EE4A92E91E0B92E912CCC24C394D12C80
:100EC000D8017C90F80111928F01D5018D915D01BF
:100ED000C82FC295CF70D0E099A18F70760101C064
:100EE000EE0C8A95EAF7892F8E2989A38AA18E2C88
:100EF000809488218AA30E94FD0686E4482E81E022
:100F0000582E30E020E0F8013197D2014D912D01AB
:100F1000842F82958F7090E0DC0190968C91608197
:100F200090E04F7002C0959587954A95E2F780FD55
:100F300039C08C2D022E01C0880F0A94EAF7862B47
:100F400080832F5F3F4F28303105F9F689A1882231
:100F500089A28AA1E82AEAA281E09081971101C0C2
:100F600080E0982AB2E008361B0709F0A9CF292DA6
:100F70004AE068E672E08EE592E00E94D5070E94A2
:100F80009204892DDF91CF911F910F91FF90EF90E7
:100F9000DF90CF90BF90AF909F908F907F905F90A9
:100FA0004F90089580E0CBCF0895FF920F931F9349
:100FB000CF93DF93F82E092F162FD72FC42F22237C
:100FC00049F081E08093AA010E94CB199093A90176
:100FD0008093A8018091AA018823A1F08091A801A3
:100FE0009091A9010E94E319069760F0EF2DF02F70
:100FF000A12FBD2FCE0FDF2FD11DEC17FD0741F420
:101000001092AA01DF91CF911F910F91FF90089547
:1010100081918D93F2CF0C940E0353985B9A529862
:101020005A9A89B183FB882780F94A9905C090E0D4
:10103000892B8093AD01089592E0FACFE091AD0144
:10104000EE0FEE0FE093AD0149B143FB882780F925
:1010500049B142FB222720F942FF02C022E030E0E2
:10106000822BE82BE093AD01EF70F0E0E85AFE4FE1
:1010700080819091AC01890F8093AC0118164CF4DB
:101080008091AB018F5F8093AB0160E080E00E94B4
:101090000B088091AC0187FF09C08091AB018150A2
:1010A0008093AB0161E080E00E940B081092AC01DC
:1010B000089582E290E00E94BD24803289F483E2A8
:1010C00090E00E94BD24883059F484E290E00E94B0
:1010D000BD2491E0873009F090E0892F8170089558
:1010E00080E0FCCFCF93C82F6FEF811160E282E2E6
:1010F00090E00E94CB246FEFC11168E083E290E0A2
:101100000E94CB246FEFC11167E084E290E0CF91A1
:101110000C94CB2480E00E9472080C944A18089525
:1011200085E290E00E94BD24682F70E090E080E0AE
:10113000089585E290E00C94CB240E948F080E94D1
:10114000590881110CC060E070E0CB010E94990841
:101150000E94F2090E94DE0A81E00C947208089550
:10116000CF93FB01C281CC2309F19C0122513F4561
:101170002031310520F582510E94EE0AC0E08C2F0B
:10118000CF91089581E00E94151643E062E081E06E
:101190000E947404F3CF81E00E94361643E062E0BF
:1011A00081E00E947404EBCF82E0F6CF8031FFE54E
:1011B0009F0789F381319F45B9F3C1E0E0CF8031CA
:1011C000EFE59E07F9F281319F45C9F682E0DBCF5A
:1011D0002FEFFC0120830895EF92FF920F931F934E
:1011E000CF93DF93EC01062FE881E150E33108F063
:1011F0005EC0F0E0EF5FFA4D0C949C24198289E008
:101200008A83602FCE01DF91CF911F910F91FF90C4
:10121000EF900C94AC1D8981823069F0833071F0BD
:101220008130D9F40E94D7190E94A2246A837B835B
:101230008C839D83E6CF0E949008F6CF7E0122E04A
:10124000E20EF11C10E0812F0E94F606F701819357
:101250007F011F5F1A30B9F7D4CF602FCE010E94F3
:10126000E808CFCF89818230C1F76A817B818C8188
:101270009D810E94A2240E949908C3CF4B816A815C
:1012800089810E94C4099827892798279D838C8388
:10129000B8CF2C813D813227232732274B816A81A9
:1012A00089810E94DD09ADCF0E94F209AACF8FEF9C
:1012B0008883A7CF0E94870A8983A3CF0E94890AC7
:1012C0009827892798279A8389839BCF6B8170E021
:1012D00089819A81AE014C5F5F4F982789279827B3
:1012E0000E948C0A8ECF6B8170E089819A81AE0159
:1012F0004C5F5F4F9827892798270E94B30A81CFB8
:101300000E94DE0A7ECF0E94B109D6CF6B8170E0C9
:1013100089819A81AE014C5F5F4F98278927982772
:101320000E942A0A6ECF6B8170E089819A81AE019A
:101330004C5F5F4F9827892798270E94500A61CFFA
:101340000E948A085ECF0E94AC1DFFEF21EE84E070
:10135000F15020408040E1F700C000000E94161AC2
:1013600050CF84E0089590E1699FB001112450E0CE
:10137000440F551F640F751F90EA899F600D711D02
:101380001124CB01869608950F931F93CF93DF937B
:101390000E94B3098C010E94BD24C82FD0E0DC2F2D
:1013A000CC27C80101960E94BD249E01282BC901AB
:1013B000DF91CF911F910F9108950F931F93CF93BA
:1013C000DF93122F032F0E94B309EC01602F0E94BC
:1013D000CB24612FCE010196DF91CF911F910F9108
:1013E0000C94CB24AF92BF92CF92DF92EF92FF92F8
:1013F0001F93CF93DF938CEAC82E80E0D82ED0E0E5
:101400007601C0E014C0F50125913491412F6C2F75
:101410008D2F0E94DD0982E0A80EB11C1F5F1830DD
:1014200091F780E1E80EF11CCF5FCA3019F0570147
:1014300010E0E9CFDF5F80EAC80ED11CD43001F79D
:10144000DF91CF911F91FF90EF90DF90CF90BF90F1
:10145000AF900895EF92FF920F931F93CF93DF9376
:10146000EC018A017C01E60EF71ECE018696CE15B0
:10147000DF0539F4DF91CF911F910F91FF90EF902D
:101480000895C03822E0D20740F40E94BD24F8013C
:1014900080830F5F1F4F2196E8CFF8011082F9CFAC
:1014A000CF92DF92EF92FF920F931F93CF93DF9330
:1014B0007C016A018C01060F171FEC01CE01869694
:1014C000C017D10749F4DF91CF911F910F91FF9081
:1014D000EF90DF90CF900895C03822E0D20740F41B
:1014E000FE01EE19FF09EC0DFD1D60810E94CB2469
:1014F0002196E4CF462F843038F47A3028F46830CF
:1015000018F4672F0C94C40990E080E0089580E1FE
:1015100008958AE591E00895EF92FF920F931F934B
:10152000CF93DF93EC018A017C01E60EF71ECE011A
:101530008A559D4FCE15DF0539F4DF91CF911F916C
:101540000F91FF90EF900895CA3521E0D20740F443
:101550000E94BD24F80180830F5F1F4F2196E7CFC3
:10156000F8011082F9CFCF92DF92EF92FF920F93A2
:101570001F93CF93DF937C016A018C01060F171F25
:10158000EC01CE018A559D4FC017D10749F4DF9178
:10159000CF911F910F91FF90EF90DF90CF90089522
:1015A000CA3521E0D20740F4FE01EE19FF09EC0D27
:1015B000FD1D60810E94CB242196E3CFCF93DF9362
:1015C000C6EAD2E060E0CE010E94CB242196C1158C
:1015D00084E0D807B9F7DF91CF910895DF92EF92B9
:1015E000FF920F931F93CF93DF9300D000D0CDB71E
:1015F000DEB7F82E8FE08F1540F08FEF93E00E945A
:10160000BD2406EA12E08823C1F00F900F900F90DE
:101610000F90DF91CF911F910F91FF90EF90DF908E
:101620000895011584E0180781F3C8010E94BD24C4
:10163000811101C0FA940F5F1F4FF110F2CF198290
:101640001A821B821C82DD24D39478018FEFE81A62
:10165000F80AC8010E94BD2489831A828823A9F24E
:101660009FEF980F933078F48A83D9820E5F1F4FD3
:10167000C7010E94BD248B83882339F2CE010196D5
:101680000E941D04E2CF8701F9CF0F931F93CF93E0
:10169000DF93C62FD42F022FFC0182818823C9F04B
:1016A0006093B0010E94CB199093AF018093AE017B
:1016B00080E28C0F883008F050C0C77081E001C014
:1016C000880FCA95EAF7DF91CF911F910F910C9483
:1016D000780F1091B001161335C08091AE01909132
:1016E000AF010E94E319883C910560F5C0E2CD0F7F
:1016F0001D17B9F080E2810F883040F4177081E047
:1017000001C0880F1A95EAF70E947F0FC83048F48D
:1017100081E09D2F977001C0880F9A95EAF70E948B
:10172000780F802F0E94650FC830B8F4D77081E021
:1017300001C0880FDA95EAF7DF91CF911F910F91E1
:101740000C947F0F80E28C0F883038F4C77081E0F2
:1017500001C0880FCA95EAF7EFCFDF91CF911F91B3
:101760000F9108959C01CB01233F4CE5340731F1E3
:1017700090F4283DFCE53F07E9F0293D4CE53407AE
:1017800069F1273D3C4579F426E241EE61EE0E9485
:10179000450B80E00895253FFCE53F07B9F090F048
:1017A000263F3C45B9F0FC0182818823D1F010929C
:1017B000B001089527E245EE65EEE9CF26E241EE5D
:1017C00060EEE5CF27E245EE64EEE1CF26E241EEA2
:1017D00062EEDDCF27E245EE66EED9CF28E241E0AA
:1017E000EBCF81E00895CF93DF93EC01FB01828181
:1017F000882309F419C1C230FCE5DF07C0F1C63106
:101800009CE5D90730F09E012A5F3C45293031051F
:1018100070F50E9463189093790280937802C0312A
:10182000ECE5DE0709F4CFC008F05BC0C8308CE5FA
:10183000D80709F4B6C088F5C430ECE5DE0709F432
:10184000A8C0C0F4C2308CE5D80709F49CC08091D0
:1018500078028260C330DC4509F498C08091780238
:10186000909179020E9471180E941B1280E0DF9112
:10187000CF910895809178028061C630ECE5DE0753
:1018800009F484C0809178028860C730DC4508F490
:101890007DC080917802806279C0CC308CE5D80719
:1018A00009F489C070F4809178028C60CA30ECE54C
:1018B000DE0709F46BC008F478C0809178028E7F4F
:1018C00065C0CE308CE5D80709F479C080917802E4
:1018D0008B7FCF30DC4508F459C0809178028F7E31
:1018E00055C0CB3FECE5DE0709F457C030F5C331F6
:1018F0008CE5D80709F46FC078F4C131ECE5DE0758
:1019000009F465C0C231DC4509F0A8CF0E941B1262
:10191000809178028F773AC0C5318CE5D80709F4F9
:1019200062C008F476C0809179028160CA3FDC45CC
:1019300009F094CF8093790291CFCF3FFCE5DF0788
:1019400009F44DC088F4809179028D7FCD3F9CE5EC
:10195000D90781F3809179028E7FCE3FDC4550F329
:10196000809179028360E6CFC130FDE5DF0709F49D
:1019700059C008F444C080E0C230DD4509F06ECFA4
:101980000E94EF186BCF809178028160809378027B
:1019900065CF809178028460F9CF8091790282606E
:1019A000C9CF809178028064F1CF0E941B12809190
:1019B00078028068EBCF809178028D7FE7CF8091AD
:1019C0007802877FE3CF809178028F7DDFCF80918F
:1019D00078028F7BDBCF80917802837FD7CF809195
:1019E00079028C7FA7CF8091780282FB992790F9AA
:1019F00021E0922790FB82F990FB83F9C7CF809179
:101A00007902982F909591708E7F892B90FB81F9A8
:101A100091CF0E941B1290917802892F97FB87F932
:101A20008058B4CF81E0ACCF81E021CFCF93DF935A
:101A3000EB0186319C4511F50E949B179A819923F1
:101A400099F08A7A91E009F490E09093B1018111C4
:101A500009C089E20E9476170E94E71780E0DF91B3
:101A6000CF91089585E3F6CF8091B101811104C033
:101A700089E20E947D17F0CF85E3FBCF81E0EFCFB5
:101A80009093B7018093B6010895E091B601F0916B
:101A9000B701309721F00190F081E02D099480E0AA
:101AA0000895E091B601F091B701309721F00280DE
:101AB000F381E02D09940895E091B601F091B7010A
:101AC000309739F022E0DC012C930480F581E02D81
:101AD000099408952091B4013091B5012817390770
:101AE00071F09093B5018093B401E091B601F0914B
:101AF000B701309721F00680F781E02D0994089511
:101B00002091B2013091B3012817390771F09093F9
:101B1000B3018093B201E091B601F091B701309723
:101B200021F00084F185E02D0994089585B780683F
:101B300085BF85B7806885BF089508950895089585
:101B40000C949F0D0E94960D0E949E0D0C94F20223
:101B500081E008950E94C2190E9401070E949D0819
:101B60000E94501A0C94A00DAF92BF92CF92DF92B8
:101B7000EF92FF920F931F93CF93DF93CDB7DEB712
:101B80002A970FB6F894DEBF0FBECDBF0E9447075D
:101B90000E94A80D882309F45FC089EBA82E81E07C
:101BA000B82E10E000E0C02E802F0E94F606E82E2E
:101BB000F501D1905F01D81609F448C08091430225
:101BC00081FD0E94FC0680E0FF24F394DE249D2D1D
:101BD0009F21B9F18E83CF82EF2081E009F480E06C
:101BE00088870E94CB198160782F9A8789874E81D8
:101BF0005F8168858A850E944E0EF801E754FE4F8A
:101C00008081F826F0820E94DD1B0E94450D909194
:101C1000B801891791F10E94450D8093B8012A9669
:101C20000FB6F894DEBF0FBECDBFDF91CF911F91ED
:101C30000F91FF90EF90DF90CF90BF90AF900C94FA
:101C40009B048F5FFF0C883009F0C1CF0F5F1F4FDF
:101C50000A30110509F0A7CF8FEF89838A831B8291
:101C60000E94CB198160782F9D838C8349815A8192
:101C70006B818D810E944E0EC6CF2A960FB6F894C6
:101C8000DEBF0FBECDBFDF91CF911F910F91FF90AF
:101C9000EF90DF90CF90BF90AF900895CF93DF93F8
:101CA000CDB7DEB72B970FB6F894DEBF0FBECDBF12
:101CB0004F83588769877A878B871E821D8285E0CC
:101CC000FE013796DE01119601900D928A95E1F79B
:101CD00049815A816B817C818D819E812B960FB6C3
:101CE000F894DEBF0FBECDBFDF91CF910C9491145D
:101CF000FC01808191810C944817CF93C82F8823D1
:101D000009F48BC08238C1F40E94450D81FD85C065
:101D100089E30E9476170E94E7172FEF81EE94E087
:101D2000215080409040E1F700C0000089E30E940C
:101D30007D17CF910C94E7178338A1F40E94450DCD
:101D400080FD6BC083E50E9476170E94E7172FEF96
:101D500081EE94E0215080409040E1F700C0000007
:101D600083E5E5CF8438A1F40E94450D82FD55C07E
:101D700087E40E9476170E94E7172FEF81EE94E028
:101D8000215080409040E1F700C0000087E4CFCFB1
:101D90008CEF8C0F813A90F46C2F80910001909120
:101DA00001010E940619882329F08C2F0E947D17BB
:101DB0000E94E7178C2F0E947617BBCF80E28C0F12
:101DC000883048F4C77081E001C0880FCA95EAF7EF
:101DD0000E949E17AECFEBE5EC0FE33040F4F0E04D
:101DE000EA56FE4F808190E0CF910C946A0DE8E5B1
:101DF000EC0FE73150F4F0E0EE0FFF1FE859FE4F13
:101E000080819181CF910C94800DC03F30F08C2F58
:101E10000E94EB1ACF910C94D21BCF910895882386
:101E200009F452C0823871F40E94450D81FF4CC004
:101E300089E30E9476170E94E71789E30E947D17C5
:101E40000C94E717833859F40E94450D80FF3CC07D
:101E500083E50E9476170E94E71783E5EFCF843869
:101E600059F40E94450D82FF2FC087E40E94761727
:101E70000E94E71787E4E2CF9CEF980F913AF0F2C7
:101E800090E2980F983050F4877091E001C0990F5C
:101E90008A95EAF7892F0E94A417D2CF9BE5980F65
:101EA000933020F490E080E00C946A0D98E5980F50
:101EB000973120F490E080E00C94800D803F20F07A
:101EC0000E94531B0C94D21B0895CF93C82F0E94DD
:101ED0007D0EC93349F42FEF87EE93E02150804007
:101EE0009040E1F700C000008C2FCF910C940F0FB1
:101EF000882321F00E949E170C94E71708958823E9
:101F000021F00E94A4170C94E7170895BF92CF9276
:101F1000DF92EF92FF920F931F93CF93DF936C01A9
:101F2000D62FC72FFC01058102950F701281111168
:101F30000E94BB170E949417E82E882371F011238A
:101F4000B1F080E28D0F883090F082E00E9432186C
:101F50000E94941791E0E82EE926BC2EB2949FE0EF
:101F6000B922EB2DF0E0EC5EFA4D0C949C24E12CB0
:101F7000F4CF0C2F0F70C07F11F00295007F11235A
:101F8000A9F0002359F080E28D0F883010F0D111B4
:101F900009C0802F0E949E170E94E7178D2F0E9474
:101FA0007D0E14C0802F0E94AE17F6CF8D2F0E9499
:101FB0000F0F002359F080E28D0F883010F0D111FF
:101FC0002CC0802F0E94A4170E94E7172B2D2850A9
:101FD000330B2430310520F40E94450D0E949B04F0
:101FE000EE2009F4D5C10E94901780FDD1C1F60101
:101FF00012820E948A170E941516C6010E94E911DA
:102000000E948A17DF91CF911F910F91FF90EF905F
:10201000DF90CF90BF900C943616802F0E94B4179B
:10202000D3CFFC2FFF70FF2EC07FC03219F0F29487
:1020300080EFF822DD2369F0D13049F1112391F1CD
:10204000002351F1F601858180FFA8CF8F70858331
:1020500023C0112381F0011106C00E94CE178F29E1
:102060000E94780FB3CF0130C1F70E94CE178F299D
:102070000E94D417ABCF011106C00E94DD178F2D2F
:102080000E947F0FA3CF013009F4A0CFF6CF112318
:1020900029F0063008F09ACF8F2DE2CF053008F0F6
:1020A00095CFEDCF002359F3D93349F4FFEF27EE55
:1020B00033E0F15020403040E1F700C000008D2FA8
:1020C0000E940F0F83CF8C2F86958695837069F0C1
:1020D000813009F07BCF8D2F9C2F9370111102C09E
:1020E00090E080E00E94800D71CF8D2F9C2F937027
:1020F000111102C090E080E00E946A0D67CF1123A9
:1021000009F1D53F99F0D63FB9F0D43F49F4809119
:1021100072029091730281609093730280937202B5
:102120008D2F0E94EB1A0E94D21B50CF8091720219
:10213000909173028260F0CF80917202909173024D
:102140008460EACFD53F89F0D63FA9F0D43F49F467
:1021500080917202909173028E7F909373028093AC
:1021600072028D2F0E94531BDECF809172029091DC
:1021700073028D7FF2CF80917202909173028B7FF8
:10218000ECCF8C2F837009F041C011111FCF4D2F60
:10219000429546954770440F440F0D2F0F7010E085
:1021A00030E020E0042E04C0000F111F221F331F57
:1021B0000A94D2F760E070E0CB01D4FF0FC06FE06B
:1021C00070E080E090E004C0660F771F881F991FC1
:1021D0004A95D2F76095709580959095C695C6956D
:1021E000C370602B712B822B932BC23049F058F4B3
:1021F000C13019F00E94C715E9CE0E94B515E6CE90
:102200000E94D915E3CE0E94B315E0CE8695112326
:1022100011F08C2F8170882309F4D8CE4D2F429570
:1022200046954770440F440F0D2F0F7010E030E0BB
:1022300020E0042E04C0000F111F221F331F0A9438
:10224000D2F760E070E0CB01D4FF0FC06FE070E028
:1022500080E090E004C0660F771F881F991F4A95A1
:10226000D2F76095709580959095C695C695C37088
:10227000602B712B822B932BC23049F058F4C13064
:1022800019F00E948C16A2CE0E947A169FCE0E9450
:102290009E169CCE0E94EF1599CECF70112329F087
:1022A0008C2F0E9415168D2FDBCE8D2F0E947F0F55
:1022B0008C2F0E9436168ACED23F89F160F4D03F2F
:1022C000C9F0D13F29F1112309F442C0011166CEB2
:1022D0008C2F8F7121C0D33F39F1D43FA1F7112347
:1022E00069F1CF718C2F0E94151663E08C2F0E942C
:1022F0001D186CCE112341F0053008F067CE8C2FED
:102300008F710E94591662CE063008F05FCEF7CF6B
:102310008C2F8F71112369F20E94151657CE8C2FC6
:102320008F711123C9F3C5CF112329F08C2F8F7121
:102330000E9400164BCE0E94FB1548CE81E00E9401
:102340003218023008F442CE82E00E9432183ECEAB
:10235000002359F0D93309F0B2CE8FEF97EEE3E0C6
:1023600081509040E040E1F7A8CE8C2F8F71A1CF33
:102370004C2F4F706D2FC6010E94F5040E942B1543
:1023800025CE4C2F4F706D2FC6010E94F8041ECE33
:10239000DF91CF911F910F91FF90EF90DF90CF9041
:1023A000BF9008950F931F93CF93DF93EC01688143
:1023B00079818A810E9452178C010E94B0160E9476
:1023C000B215B801CE01DF91CF911F910F910C94FE
:1023D000860FCF93DF93EC018B819C81892B29F0B1
:1023E0008881998189238F3F19F4DF91CF910895D6
:1023F000CE010E94B3048823C1F3CE010E94D21102
:10240000CE01DF91CF910C945C030E94BB170E9418
:10241000CB170E94E7170E94F71C0E94D21B90E086
:1024200080E00E946A0D90E080E00C94800D0E9494
:1024300084170C9405120E94AB170C941712E92F05
:10244000E295EF70E250EE3070F4F0E0EC5DFA4DA2
:102450000C949C24803F19F020F4883E20F481E005
:102460000895843FE1F380E00895883EC0F3813F02
:10247000D1F7F5CF93FB882780F908950E9448177C
:102480000C941F12CF93DF9300D000D00F92CDB7E2
:10249000DEB70F900F900F900F900F90DF91CF91BC
:1024A0000895CF93DF9300D000D000D0CDB7DEB732
:1024B00026960FB6F894DEBF0FBECDBFDF91CF9149
:1024C00008951F93CF93DF93C091C40116E08091CC
:1024D000C5018C1304C0DF91CF911F910895D0E006
:1024E0001C9FF0011D9FF00D1124EA53FE4F408107
:1024F000518162817381848195810E94511221965C
:10250000C770E5CF4091F6015091F7016091F80155
:102510007091F9018091FA019091FB010C94511294
:102520001F93CF93DF938091FB01807FA9F480916B
:10253000F801882389F08091C401C091C5016091A0
:10254000F6017091F701A091F901B091FA01D62F2F
:10255000D72316E0C81304C0DF91CF911F910895CF
:1025600090E0109711F0DF3F19F401968770F2CFD9
:10257000189F9001199F300D1124F901EA53FE4F65
:1025800041814713F2CF40814613EFCF4281411181
:10259000ECCF438154814A1B5B0B483C510528F723
:1025A0008091FB018F7080618093FB01F901E553FD
:1025B000FE4F80818F708061808386EF91E00E9462
:1025C000E911DF91CF911F910C946112AF92BF92EC
:1025D000CF92DF92EF92FF920F931F93CF93DF93EF
:1025E000CDB7DEB761970FB6F894DEBF0FBECDBF93
:1025F0008C0185E0F801DE011D9601900D928A950F
:10260000E1F7F80140815181E28086EFC82E81E038
:10261000D82E6091F9017091FA016115710509F4E4
:1026200061C19091F6012091F701892F82238F3F9C
:1026300009F458C1A380B480F090F801F501E61BBD
:10264000F70BFF2009F4FCC08091FB01382F307F8D
:10265000E83CF10508F0B2C0311179C0FE2C251319
:1026600023C0941321C0E1101FC08F70806180933C
:10267000FB010E948212C6010E94E9118091FB01B8
:10268000F80185838F2D61960FB6F894DEBF0FBEDB
:10269000CDBFDF91CF911F910F91FF90EF90DF9011
:1026A000CF90BF90AF900895AB2829F0842F852359
:1026B0008F3F09F033C180E0F82FF170DF2E80FFEB
:1026C0003CC08091C4012091C50136E0821315C041
:1026D0004D875E878D859E850E944817292F2295FC
:1026E0002F702230F0F0243018F59F70F1F0F801CF
:1026F0009581907FD1F4D12C1EC090E0389FF001DD
:10270000399FF00D1124EA53FE4F6181651306C015
:102710006081641303C062816E110FC001968770DF
:10272000D5CF9F7011F0882331F3805E883018F385
:10273000C8010E94E911FD2CA5CFEE2009F4A2CF1B
:102740008091FB0181608093FB01F12C9BCF2513CD
:1027500006C0941304C0F801EE2009F48DC04D8723
:102760005E878D859E850E943E12882319F1EE209A
:1027700009F18091FB01803270F02091F6013091D7
:10278000F70138872F831986BB86AA868C87CE01EE
:1027900007960E94E91186E0F801A6EFB1E00190EA
:1027A0000D928A95E1F70E9490120E948212FF24F6
:1027B000F39468CFC8010E94E911F9CF311113C019
:1027C0007A2DB98AA88A6E2D89890E94421286EFD5
:1027D00091E00E94E91186E0F60111928A95E9F7ED
:1027E0000E948212B2CF25130FC094130DC0E110C6
:1027F0000BC0F8018583C8010E94E91186E0F6014B
:1028000011928A95E9F73ECF4D875E878D859E852B
:102810000E943E12882371F2EE2061F28091FB014A
:10282000803208F4B8CF2091F6013091F7013A8355
:1028300029831B82BD82AC828E83CE010196A9CFF3
:10284000E83CF10508F041C0FE2CEE2009F4B2CFBF
:1028500025132AC0941328C08091FB0180FD1BC062
:10286000982F907FC1F0F8018583903F31F0982F29
:10287000907F905F8F70892B8583C8010E94E9113A
:1028800086E0F801A6EFB1E001900D928A95E1F79C
:102890000E948212F7CE86E0F801A6EFB1E0019027
:1028A0000D928A95E1F7EECE4D875E878D859E85E8
:1028B0000E943E1281116FCF8091FB018160809355
:1028C000FB01C8010E94E911DDCE7A2DB98AA88AE0
:1028D0006E2D89890E94421286E0F60111928A9536
:1028E000E9F7D6CFEE2009F465CF4D875E878D8559
:1028F0009E850E943E12F82E882309F45BCF86E065
:10290000F801A6EFB1E001900D928A95E1F786EF0C
:1029100091E00E94780E0E949012BACF81E08E253D
:10292000CBCE1F93CF93DF93CDB7DEB72C970FB6E7
:10293000F894DEBF0FBECDBF4F83588769877A8773
:102940008B879C87CE0107960E94E612882369F048
:102950008A859B85892B39F04F815885842F852363
:102960008F3F09F071C016E05FC086E0FE01379628
:10297000DE01119601900D928A95E1F78A859B857B
:10298000892B89F388859F8189238F3F61F320916B
:10299000C50130E0C9010196877099274091C401B3
:1029A0004817190671F40E941B121092C50110926B
:1029B000C40186E0E6EFF1E0DF011D928A95E9F7B8
:1029C000D2CF96E0929FD001939FB00D1124AA53CD
:1029D000BE4FFE01319601900D929A95E1F78093DA
:1029E000C5010E946112BFCF819FC00111248A538B
:1029F0009E4F0E94E6128823E9F0E091C4011E9FD9
:102A0000F0011124EA53FE4F4081518162817381AC
:102A1000848195810E9451128091C40190E00196B9
:102A2000877099278093C4018091C4019091C5015A
:102A30008913DACF2C960FB6F894DEBF0FBECDBF48
:102A4000DF91CF911F91089569857A858B859C854B
:102A50000E94511288CFEF92FF920F931F93CF9352
:102A6000DF938C01892B81F0F12CEE24E394E801B3
:102A70002196F8018491843770F4843008F05FC0A7
:102A80008130B1F08230A1F1DF91CF911F910F9190
:102A9000FF90EF900895853709F44CC008F43DC0CD
:102AA0009CE7980F903780F78F770E940F0F49C0EF
:102AB0000E5F1F4FFE01849190E2980F983060F4F2
:102AC0008770FE2D01C0FF0F8A95EAF78F2F0E94B5
:102AD000BE170E94E71702C00E947D0E8F2D815005
:102AE00030F2EFE9FFE03197F1F700C00000F7CFD7
:102AF0000E5F1F4FFE01849190E2980F983050F4C2
:102B00008770FE2D01C0FF0F8A95EAF78F2F0E9474
:102B1000C417DFCF0E940F0FE1CF0E5F1F4FFE01E2
:102B2000C491C150D8F28FE99FE00197F1F700C03E
:102B30000000F7CF0E5F1F4FFE01F490CFCF0E9431
:102B40007D0E8E01CBCF08950C94A3150E94A41581
:102B50006093320270933302809334029093350273
:102B60000C94051208950C94A6150F931F930091D1
:102B70003202109133022091340230913502602BE1
:102B8000712B822B932B1F910F910C94A6150F93F1
:102B90001F93009132021091330220913402309140
:102BA000350260237123822393231F910F910C948C
:102BB000A6150F931F9300913202109133022091BA
:102BC00034023091350260277127822793271F91A5
:102BD0000F910C94A6150C94A3150C94EB150E9460
:102BE000ED1560932E0270932F0280933002909324
:102BF00031020C94051260E070E0CB010C94EF15EB
:102C00000F931F9341E050E060E070E08A019B0168
:102C100004C0000F111F221F331F8A95D2F7C9016C
:102C2000B8011F910F910C94EF150F931F9341E082
:102C300050E060E070E004C0440F551F661F771F2E
:102C40008A95D2F780912E0290912F02A0913002A6
:102C5000B09131028A019B01082B192B2A2B3B2BA7
:102C6000C901B8011F910F910C94EF150F931F9399
:102C700041E050E060E070E004C0440F551F661F63
:102C8000771F8A95D2F7CB01BA0160957095809530
:102C9000909500912E0210912F02209130023091D8
:102CA000310260237123822393231F910F910C948F
:102CB000EF150F931F9341E050E060E070E004C017
:102CC000440F551F661F771F8A95D2F780912E02F9
:102CD00090912F02A0913002B09131028A019B01A4
:102CE000082719272A273B27C901B8011F910F91EF
:102CF0000C94EF150F931F9300912E0210912F0249
:102D00002091300230913102602B712B822B932B5A
:102D10001F910F910C94EF150F931F9300912E02AA
:102D200010912F02209130023091310260237123E3
:102D3000822393231F910F910C94EF150F931F93F0
:102D400000912E0210912F02209130023091310219
:102D500060277127822793271F910F910C94EF15FD
:102D60000895990F990F990F890F982F977041E047
:102D700001C0440F9A95EAF786958695869595E069
:102D8000899FF0011124E450FE4F30E020E070E014
:102D90005191DF011197CB01022E02C096958795C4
:102DA0000A94E2F7817081958527842385278C9387
:102DB0002F5F3F4F2530310559F70895990F990F2F
:102DC000990F890F982F977086958695869525E09F
:102DD000829FF0011124E450FE4F50E040E080E07B
:102DE000219130E0092E02C0369527950A94E2F72A
:102DF00021703327042E01C0220F0A94EAF7822B98
:102E00004F5F5F4F4530510559F70895BF92CF92FC
:102E1000DF92EF92FF920F931F93CF93DF938C017A
:102E2000C0902E02D0902F02E0903002F09031023C
:102E30008091320290913302A0913402B091350218
:102E4000C82AD92AEA2AFB2ACFE1D0E0BC2ED70132
:102E5000C6010C2E04C0B695A795979587950A9440
:102E6000D2F780FD0EC0219788F7B12C8B2DDF9112
:102E7000CF911F910F91FF90EF90DF90CF90BF9077
:102E80000895B8018C2F0E940105019761F3EECFE0
:102E9000CF93DF93EC010E940617BE01DF91CF9123
:102EA0000C9401051F93CF93DF93EB019091C30125
:102EB000992331F0CB01DF91CF911F910C944817EA
:102EC000882379F0CB010E940617182F682FCE01B6
:102ED0000E94B116BE01812FDF91CF911F910C94FA
:102EE0000105CB010E94DE16182FF4CF682F8091C8
:102EF0000001909101010C943C19682F8091000110
:102F0000909101010C943E19809100019091010172
:102F10000C94401980913602859585958595089584
:102F2000809136028770089590913602977081E003
:102F300009F480E008958091420208959091420240
:102F4000892B8093420208958095909142029823A4
:102F50009093420208951092420208959091410286
:102F6000892B809341020895809590914102982386
:102F70009093410208951092410208959091400269
:102F8000892B809340020895809590914002982368
:102F90009093400208951092400208958091370264
:102FA000089508950C94D11790913702981721F045
:102FB000809337020C94D2170895809137028823AA
:102FC00029F01092370280E00C94D2170895E09116
:102FD0000001F0910101809142028083E0910001A3
:102FE000F0910101808190914102892B8083E091D1
:102FF0000001F0910101808190914002892B808332
:1030000090913702992381F0E0910001F091010144
:103010008081892B808380910001909101010E9421
:10302000F41881110E94DD17809100019091010137
:103030000C94510D08950C941A1898E0899F9001F2
:103040001124622B609336020E941516809136027D
:103050008595859585950C941B181092360280E015
:103060000C941B1890913602809589238093360228
:10307000282F277071F4282F082E000C330B92177D
:10308000130639F08595859585950E9436160C9422
:103090002D1808956FEF7FEF90E080E00C94E92405
:1030A00090E080E00E94C52421E08C3E9E4F09F014
:1030B00020E0822F089582E090E00C94BD2483E00C
:1030C00090E00C94BD24CF9384E090E00E94BD2456
:1030D000C82F81E290E00E94BD24982F8C2FCF91C1
:1030E0000895CF93C92F682F84E090E00E94CB24ED
:1030F0006C2F81E290E0CF910C94CB24AB01BC010A
:103100008FE090E00C94DD24AB01BC0183E190E002
:103110000C94DD2460E070E0CB010C94841860E036
:1031200070E0CB010E947E180C948A186CEE7EEF42
:1031300090E080E00E94E92460E082E090E00E945C
:10314000CB2460E083E090E00E94CB241092320216
:1031500010923302109234021092350260E084E043
:1031600090E00E94CB2460E081E290E00E94CB24BA
:1031700060E085E090E00E94CB2460E086E090E093
:103180000E94CB246FEF87E090E00E94CB2440E0C8
:1031900050E0BA0188E090E00E94DD2460E08DE01C
:1031A00090E00E94CB2440E050E0BA0188E190E03A
:1031B0000E94DD2460E087E190E00E94CB2440E0A3
:1031C00050E0BA018CE190E00E94DD2460E080E2F2
:1031D00090E00E94CB240C948F180C949618682FC2
:1031E0008EE090E00C94CB249C012E5F3F4FAC010D
:1031F000485F5F4F80E02417350709F40895F9010F
:1032000091919F019923B9F38F5FF5CF662349F020
:10321000FC01329608962191261729F0E817F90744
:10322000D1F780E0089581E008959C01FC01329679
:103230009FEF80E04191461751F09F3F19F44111F3
:1032400001C0982F8F5F8630A9F79F3F09F408953A
:10325000290F311D97FD3A95F90162830895FC010C
:10326000329608962191261303C0DF0111971C9214
:10327000E817F907B9F708950C9415190C942F194C
:10328000029626E0FC0111922A95E9F70895089527
:1032900008950C9448190E94491980917E02843047
:1032A00049F11092440288E190E020E40FB6F894CE
:1032B000A895809360000FBE2093600080E00E947C
:1032C0009B040E94491983B7817F846083BF83B7C1
:1032D000816083BF7894889583B78E7F83BF0FB654
:1032E000F894A895809160008861809360001092A6
:1032F00060000FBE08950895CF930E9447190E9461
:1033000047070E947B19C0E08C2F0E94F6068111AE
:1033100005C0CF5FCA30C1F7CF91089581E0FCCFDF
:1033200008950C9490190E941B120E94450D0E9452
:103330009B040C9491191F921FB61F9211248F9316
:103340009F93AF93BF9380914402811113C08091EA
:10335000740290917502A0917602B0917702419625
:10336000A11DB11D8093740290937502A093760203
:10337000B0937702BF91AF919F918F911F901FBE25
:103380001F90189582E084BD93E095BD9AEF97BD9C
:1033900080936E0008952FB7F894809174029091F5
:1033A0007502A0917602B09177022FBF08952FB7D2
:1033B000F8946091740270917502809176029091F8
:1033C00077022FBF08959C014FB7F8948091740243
:1033D00090917502A0917602B09177024FBF821B47
:1033E000930B089578941F921FB61F9211248F9308
:1033F0009F93AF93BF938091740290917502A091B7
:103400007602B09177020196A11DB11D80937402DE
:1034100090937502A0937602B0937702BF91AF911B
:103420009F918F911F901FBE1F90189581E08093F0
:10343000E00080E28093D8001092C9008FE19EE402
:103440000197F1F700C0000087E090EBDC0180936A
:10345000870290938802A0938902B0938A0288E140
:103460009CE00FB6F894A895809360000FBE9093EF
:103470006000FFCF0C948A080E9447078FE39CE905
:103480000197F1F700C000000E94470782E00E9408
:10349000F60680FF04C00E943A1A0C94161A08958A
:1034A0000E945018811102C00E94ED180E945B1802
:1034B000809343020E94631890937902809378026C
:1034C0000E945F18682F70E090E080E00C94B315C4
:1034D00080914C0280FF12C06091070185E0689FD7
:1034E000B0011124759567957595679560387105DC
:1034F000A8F561157105A1F1862F089581FF09C016
:103500006091070185E0689FB0011124759567956A
:10351000EDCF6091070182FD0AC080914B028823A4
:10352000D1F09091060160910701891728F085E09C
:10353000689FB0011124DACF869FB001112485E085
:10354000869F9001879F300D1124692F70E0C9017B
:103550000E948824CBCF65E070E0CECF8FE708953E
:1035600081E0089580914C0280FF0CC060910301BE
:1035700070E075956795759567956115710549F1C9
:10358000862F089581FF06C06091030170E0759554
:103590006795F3CF6091030182FD0BC090914B02C0
:1035A0009923A1F06091020180910301961738F0F0
:1035B000682F70E06038710500F38FE70895899FE8
:1035C000C001112470E00E948824F4CF61E070E013
:1035D000D7CF81E00895803F31F40E94681A819529
:1035E000809350020895813F19F40E94681AF8CF21
:1035F000823F31F40E94681A819580934F020895AA
:10360000833F19F40E94681AF8CF893F29F40E9479
:10361000B21A8093510208958A3F21F40E94B21A8F
:103620008195F7CF8B3F31F40E94B21A8195809338
:10363000520208958C3F19F40E94B21AF8CF843FC9
:1036400031F480914E02816080934E020895853F4F
:1036500021F480914E028260F7CF863F21F4809161
:103660004E028460F1CF873F21F480914E02886042
:10367000EBCF883F21F480914E028061E5CF8D3FF2
:1036800031F480914C02816080934C0208958E3F0A
:1036900021F480914C028260F7CF8F3FB9F780917F
:1036A0004C028460F1CF90914F02803F41F48091B1
:1036B000500287FD10925002992371F00895813FC6
:1036C00029F4809150021816ACF3F6CF823F81F4B2
:1036D00097FFF2CF10924F028091500290915102C9
:1036E000892B90915202892B49F710924B02089531
:1036F000833F19F4191674F3DFCF893F39F48091B1
:1037000051021816CCF610925102D6CF8A3F29F4F6
:103710008091510287FFD0CFF6CF8B3F39F4809153
:10372000520287FFC9CF10925202C6CF8C3F29F4B4
:10373000809152021816BCF3BFCF843F31F48091C0
:103740004E028E7F80934E02B7CF853F21F4809149
:103750004E028D7FF7CF863F21F480914E028B7F02
:10376000F1CF873F21F480914E02877FEBCF883FD6
:1037700021F480914E028F7EE5CF8D3F31F4809110
:103780004C028E7F80934C0297CF8E3F21F4809124
:103790004C028D7FF7CF8F3F09F08ECF80914C0286
:1037A0008B7FF0CF8DE492E00E945C0D0E94CB19DC
:1037B00090934A02809349020895CF93DF9300D0FB
:1037C00000D000D0CDB7DEB786E0EDE4F2E0DE0158
:1037D000119601900D928A95E1F780914F02909198
:1037E0005002892B81F080914702909148020E94FB
:1037F000E319AC0190914B02992331F180910801BA
:103800008417150670F18091510290915202892B14
:1038100091F080914502909146020E94E319AC011B
:1038200090914B02992309F478C080910401841788
:10383000150608F480C026960FB6F894DEBF0FBEBA
:10384000CDBFDF91CF910895209109018AE0289F93
:103850009001112424173507B0F69F5F90934B0217
:1038600002C09F3FD1F710925102109252028091F4
:103870004F02181624F40E94681A80934F02809118
:103880004F0287FF05C00E94681A819580934F02FE
:1038900080915002181624F40E94681A80935002F6
:1038A0008091500287FF05C00E94681A819580931D
:1038B000500230914F023323A1F020915002222375
:1038C00081F045EB3403C00111249923F1F090936A
:1038D0004F0245EB2403900111243323D1F03093A0
:1038E00050020E94D21B8091490290914A0290930B
:1038F00048028093470286E0FE013196ADE4B2E0D3
:1039000001900D928A95E1F77ECF81E080934F027E
:10391000E0CF81E080935002E4CF209105018AE05E
:10392000289F900111242417350708F084CF9F5F4A
:1039300090934B0202C09F3FD1F710924F0210921A
:10394000500280915102181624F40E94B21A8093FA
:1039500051028091510287FF05C00E94B21A8195E1
:103960008093510280915202181624F40E94B21AD8
:10397000809352028091520287FF05C00E94B21AC2
:10398000819580935202309151023323A1F020910E
:103990005202222381F045EB3403C0011124992304
:1039A000F1F09093510245EB24039001112433234D
:1039B000D1F0309352020E94D21B80914902909123
:1039C0004A02909346028093450286E0FE013196BA
:1039D000ADE4B2E001900D928A95E1F72CCF81E041
:1039E00080935102E0CF81E080935202E4CF86E0E1
:1039F000EDE4F2E0DF011D928A95E9F710924B02A7
:103A000010924C02089580915B020895CF93DF934A
:103A100000D00F92CDB7DEB790917E02943011F5B1
:103A200089837B836A839093E9008FEF9091E8000C
:103A3000815095FD06C095ED9A95F1F70000811132
:103A4000F5CF8091E80085FF0DC050E040E063E0D5
:103A500070E0CE0101960E94A81F8091E8008E7749
:103A60008093E8000F900F900F90DF91CF91089511
:103A7000CF93DF93EC010E948B1F823011F08430D2
:103A800031F4BE0184E0DF91CF910C94061DDF91EB
:103A9000CF910895BC0183E00C94061DCF93DF9372
:103AA000EC010E948B1F823011F08430F9F484E025
:103AB0008093E9008FEF9091E800815095FD06C05A
:103AC00095ED9A95F1F700008111F5CF8091E8000E
:103AD00085FF0CC050E040E066E070E0CE010E943F
:103AE000A81F8091E8008E778093E800DF91CF9146
:103AF0000895CF93DF93EC010E948B1F823011F069
:103B0000843039F581E08093E9008FEF9091E800EF
:103B1000815095FD06C095ED9A95F1F70000811151
:103B2000F5CF8091E80085FF14C050E040E068E0E8
:103B300070E0CE010E94A81F8091E8008E778093EC
:103B4000E80088E0FE01A3E5B2E001900D928A95BD
:103B5000E1F7DF91CF910895CF93FC01603221F519
:103B600080917E02843001F5C091E900CF702091F0
:103B7000EC00922F917020FD90E8C92B82E0809399
:103B8000E9008091E80080FF0CC050E040E060E276
:103B900070E0CF010E94A81F8091E8008E7780938B
:103BA000E800CF70C093E900CF91089580917D0225
:103BB000811109C00E9487210E94E4218091E200C6
:103BC00084608093E200089510927D020895089524
:103BD00008950C94931942E061EC81E00E94032166
:103BE00042E261EC84E00E94032142E261EC82E067
:103BF0000E94032142E260EC83E00C940321809157
:103C00008002833009F461C030F48130D1F1823018
:103C100009F49DC008958A3009F489C08B3009F4F5
:103C20006FC0893009F050C080917F02813209F065
:103C30004BC08091830290918402009719F0029703
:103C400009F042C08091E800877F8093E80080916E
:103C5000E80082FF35C09091F3008091F200029756
:103C600029F48091F1008B7F813021F48091F10063
:103C700080935B028091E8008B778093E8000C943E
:103C8000372180917F02813AF9F48091E800877FA3
:103C90008093E8008091830290918402892B61F4E3
:103CA00068E083E592E070E00E9446208091E800A1
:103CB0008B778093E800089560E090E080E0F3CF98
:103CC00080917E028111C3CF089580917F02813A55
:103CD000D9F78091830290918402892BA9F7809172
:103CE000E800877F8093E8008091E80080FFFCCFA8
:103CF000809114018093F1008091E8008E77BDCF10
:103D000080917F02813201F7809183029091840239
:103D1000892BD1F68091E800877F8093E8000E948C
:103D2000372180918102809314010C941B128091A1
:103D30007F02813249F68091E800877F8093E80016
:103D40000E9437218091820280935C0208958091C5
:103D50007F02813A09F0B8CF8091E800877F809395
:103D6000E8008091E80080FFFCCF80915C02C2CF28
:103D7000CDB7DEB7A0970FB6F894DEBF0FBECDBFAC
:103D800084B7877F84BF0FB6F894A89580916000B0
:103D9000886180936000109260000FBE80E890E020
:103DA0000FB6F89480936100909361000FBE0E945B
:103DB000A20D0E9487210E94E4218091E20084608C
:103DC0008093E20078940E946D240E94AA0D8AE0FC
:103DD00091E00E94400D13E080917E02853039F120
:103DE0000E94B40D80917E028430B1F71093E900F7
:103DF0008091E80082FFF0CF8091E80090E085FF9D
:103E000009C050E040E060E270E0CE0101960E94FF
:103E1000F71F91E08091E8008B778093E800992369
:103E2000D9F260E2CE0101960E94EC08D5CF0E9443
:103E30004B1980917C02882379F20E947C19882397
:103E400059F20E94921FC8CF0C94261F292F3327A6
:103E50002330310521F168F42130310509F449C0DE
:103E60002230310509F44AC090E080E030E020E0E3
:103E700029C02132310581F122323105A9F76330A1
:103E8000710590F7FB01EE0FFF1FE456FE4F2081F6
:103E9000318167567E4FFB01808190E013C09927E6
:103EA0008130910599F0009741F08230910589F0B9
:103EB0000397D1F6ECECF3E002C0EEEFF3E084916F
:103EC00090E09F01FA01318320830895EAEEF3E048
:103ED000F6CFE2EDF3E0F3CF6330710528F6660F1D
:103EE000771FFB01EE55FE4F2081318189E090E084
:103EF000E9CF82E190E02DE534E0E4CF8BE590E07E
:103F000022E034E0DFCF80917E02843011F482E041
:103F1000089581E0089580915D02811102C00C94A2
:103F2000831F089580E189BD82E189BD09B400FE47
:103F3000FDCF8091D8008F7D8093D8008091E000E4
:103F400082608093E0008091E00081FDFCCF0895C5
:103F5000AF92BF92CF92DF92FF920F931F93CF93B6
:103F6000DF936C01EB018A010E945621F82E81112A
:103F700023C00115110539F0F80180819181C81B1A
:103F8000D90BC80ED91EB12CA12C2097A9F0809175
:103F9000E80085FD22C08091E8008E778093E800DC
:103FA00001151105A1F0F80180819181A80EB91EBB
:103FB000B182A08285E0F82E8F2DDF91CF911F91E5
:103FC0000F91FF90DF90CF90BF90AF9008950E9427
:103FD00056218823D1F2F82EEFCFF60181916F019F
:103FE0008093F1002197FFEFAF1ABF0ACECFAF92B7
:103FF000BF92CF92DF92FF920F931F93CF93DF93E5
:104000006C01EB018A010E945621F82E811123C018
:104010000115110539F0F80180819181C81BD90B78
:10402000C80ED91EB12CA12C2097A9F08091E800D0
:1040300085FD22C08091E8008B778093E800011510
:104040001105A1F0F80180819181A80EB91EB182FD
:10405000A08285E0F82E8F2DDF91CF911F910F91D7
:10406000FF90DF90CF90BF90AF9008950E945621AF
:104070008823D1F2F82EEFCF8091F100F6018193E1
:104080006F012197FFEFAF1ABF0ACECFFC018091DD
:1040900085029091860286179707A0F06115710539
:1040A00029F49091E8009E779093E80090E06115E4
:1040B000710551F4911108C08091E80082FF34C06D
:1040C00080E00895BC01F2CF80917E028823C1F187
:1040D0008530C1F18091E80083FD30C08091E80017
:1040E00082FDEACF8091E80080FFE1CF8091F3006C
:1040F0002091F200382F6115710519F02830310533
:1041000058F091E02830310509F090E02091E80066
:104110002E772093E800CBCF81918093F1006150FE
:1041200071092F5F3F4FE7CF80917E02882341F0D6
:10413000853041F08091E80083FFBECF81E0089593
:1041400082E0089583E00895FC01809185029091BA
:10415000860286179707A0F06115710529F48091F2
:10416000E8008E778093E80090E06115710551F4C6
:10417000911108C08091E80082FF35C080E0089569
:10418000BC01F2CF80917E028823C9F18530C9F14C
:104190008091E80083FD31C08091E80082FDEACF84
:1041A0008091E80080FFE1CF8091F3002091F20040
:1041B000382F6115710519F02830310558F091E05C
:1041C0002830310509F090E08091E8008E778093E7
:1041D000E800CBCF84918093F10031966150710952
:1041E0002F5F3F4FE6CF80917E02882341F08530DC
:1041F00041F08091E80083FFBDCF81E0089582E027
:10420000089583E00895982F973028F08F70809359
:10421000E90081E008959093E900242F762F50E083
:10422000981731F07091EC002091ED005091F00062
:1042300021FD02C09F5FE8CF3091EB003E7F3093BD
:10424000EB003091ED003D7F3093ED003091EB00BD
:1042500031603093EB007093EC002093ED005093AD
:10426000F0002091EE0027FDE5CF80E008958091D9
:104270007F0287FF13C08091E80082FF06C0809113
:10428000E8008B778093E80004C080917E02811162
:10429000F2CF089580917E028823D9F38091E800BF
:1042A00080FFF8CF8091E8008E77ECCF2091E4007A
:1042B0003091E50095E6A9012091EC00822F8170F4
:1042C00020FF06C08091E80080FF06C080E00895CE
:1042D0002091E80022FD1AC080917E02882389F097
:1042E000853089F08091EB0085FD0FC02091E400BE
:1042F0003091E50042175307F9F29150E1F684E05E
:10430000089582E0089583E0089581E008950E9471
:10431000F5210E94FD21E0EEF0E080818160808344
:10432000E8EDF0E080818F77808319BCA7EDB0E0E5
:104330008C918E7F8C9380818F7E808310927D0202
:1043400008950F931F93CF93DF930E94F5210E944E
:10435000FD21C8EDD0E088818F77888388818068CF
:10436000888388818F7D888319BC10927E02109289
:104370007A0210927C0210927B0200EE10E0F801AB
:1043800080818B7F808388818160888342E060E0C8
:1043900080E00E940321E1EEF0E080818E7F808347
:1043A000E2EEF0E08081816080838081886080839C
:1043B000F80180818E7F8083888180618883DF918E
:1043C000CF911F910F910895E8EDF0E080818F7EED
:1043D0008083E7EDF0E080818160808384E082BFAC
:1043E00081E080937D020C94A121E8EDF0E08081D2
:1043F0008E7F80831092E20008951092DA0010926E
:10440000E10008951F920F920FB60F9211242F937F
:104410003F934F935F936F937F938F939F93AF934C
:10442000BF93EF93FF938091E10082FF0BC08091D7
:10443000E20082FF07C08091E1008B7F8093E10062
:104440000E946C248091DA0080FF19C08091D8000E
:1044500080FF15C08091DA008E7F8093DA00809112
:10446000D90080FF96C080E189BD82E189BD09B491
:1044700000FEFDCF81E080937E020E94D61D8091D8
:10448000E10080FF19C08091E20080FF15C080919B
:10449000E2008E7F8093E2008091E2008061809351
:1044A000E2008091D80080628093D80019BC85E03A
:1044B00080937E020E94E81D8091E10084FF2BC062
:1044C0008091E20084FF27C080E189BD82E189BD3F
:1044D00089B5982F917080FFFBCF8091D8008F7D98
:1044E0008093D8008091E1008F7E8093E1008091DD
:1044F000E2008F7E8093E2008091E20081608093F1
:10450000E20080917A02882309F449C084E0809314
:104510007E020E94E91D8091E10083FF29C0809105
:10452000E20083FF25C08091E100877F8093E10056
:1045300082E080937E0210927A028091E1008E7F69
:104540008093E1008091E2008E7F8093E200809171
:10455000E20080618093E20042E060E080E00E943F
:1045600003218091F00088608093F0000E94E71D95
:10457000FF91EF91BF91AF919F918F917F916F913B
:104580005F914F913F912F910F900FBE0F901F9011
:10459000189519BC10927E020E94E41D70CF809184
:1045A000E30087FD93E090937E02B3CF1F920F92BA
:1045B0000FB60F9211242F933F934F935F936F93F6
:1045C0007F938F939F93AF93BF93CF93DF93EF939B
:1045D000FF93D091E900DF708091EC00C82FC1708B
:1045E00080FDC0E81092E9008091F000877F809301
:1045F000F00078940E941A231092E9008091F00054
:1046000088608093F000CD2BCF70C093E900FF91BC
:10461000EF91DF91CF91BF91AF919F918F917F915A
:104620006F915F914F913F912F910F900FBE0F901F
:104630001F9018951F93CF93DF93CDB7DEB7AA973E
:104640000FB6F894DEBF0FBECDBF8FE792E020918A
:10465000F100FC012193CF01F2E087389F07B9F701
:104660000E94FF1D8091E80083FF1EC180917F02A0
:10467000909180029A3008F017C1E92FF0E0EE5CCB
:10468000FA4D0C949C24803899F0823809F00CC1C2
:10469000809183028F70873008F006C18093E90013
:1046A0008091EB0085FB882780F91092E90006C015
:1046B00080917B0290917C02911182609091E80040
:1046C000977F9093E8008093F1001092F100809121
:1046D000E8008E77E5C0882309F4D3C0823009F062
:1046E000E3C0809181028111D6C0809183028F70D6
:1046F0002FEF280F263008F0D7C08093E9002091D3
:10470000EB0020FFC8C0933031F48091EB00806251
:104710008093EB00C0C09091EB0090619093EB0010
:1047200021E030E001C0220F8A95EAF72093EA00E9
:104730001092EA008091EB008860EACF8111B4C04A
:10474000109181021F778091E3008078812B809304
:10475000E3008091E800877F8093E8000E94372182
:104760008091E80080FFFCCF8091E3008068809317
:10477000E30082E0111183E080937E0295C08058AF
:10478000823008F091C080918102909182028C3D2C
:1047900023E09207A1F583E08A838AE289834FB7F9
:1047A000F894DE01139620E03EE051E2E32FF0E0C2
:1047B00050935700E49120FF03C0E295EF703F5FF4
:1047C000EF708E2F90E0EA30C0F0C7968D939D93E6
:1047D0002F5F243159F74FBF8091E800877F809386
:1047E000E8006AE270E0CE0101960E9446208091C6
:1047F000E8008B778093E80057C0C096E7CF6091C0
:10480000830270918402AE014F5F5F4F0E94241FAC
:10481000BC01892B09F448C09091E800977F9093E0
:10482000E80089819A810E94A420E1CF8038E1F5D7
:104830008091E800877F8093E80080917A028093DE
:10484000F10045CF811130C090918102923060F526
:104850008091E800877F8093E80090937A020E941D
:10486000372180917A02882311F084E005C080917D
:10487000E30087FDFACF81E080937E020E94EB1D6A
:1048800013C080918102813079F481E0933009F086
:1048900080E080937C021092E9008091E800877F9D
:1048A0008093E8000E9437218091E80083FF0AC0CE
:1048B0008091E800877F8093E8008091EB00806220
:1048C0008093EB00AA960FB6F894DEBF0FBECDBF63
:1048D000DF91CF911F9108950895CF9380917E022B
:1048E0008823A1F0C091E900CF709091EC00892F4E
:1048F000817090FD80E8C82B1092E9008091E8005B
:1049000083FD0E941A23CF70C093E900CF910895D0
:1049100097FB072E16F4009407D077FD09D00E946C
:10492000A92407FC05D03EF4909581959F4F0895EA
:10493000709561957F4F0895EE0FFF1F0590F491DC
:10494000E02D0994692796276927782787277827F4
:104950000895AA1BBB1B51E107C0AA1FBB1FA617C6
:10496000B70710F0A61BB70B881F991F5A95A9F718
:1049700080959095BC01CD010895F999FECF92BD27
:1049800081BDF89A992780B50895A8E1B0E042E08A
:1049900050E00C94F124262FF999FECF92BD81BDF1
:1049A000F89A019700B4021639F01FBA20BD0FB66D
:1049B000F894FA9AF99A0FBE08950396272F0E9449
:1049C000CC240E94CB24252F0E94CC24242F0C948D
:1049D000CC240196272F0E94CC240C94CB24DC01FC
:1049E000CB01FC01F999FECF06C0F2BDE1BDF89AFA
:1049F000319600B40D9241505040B8F70895F894A4
:104A0000FFCFFE080B0932093E094909540957092D
:104A100057095709A009A3095A095E0966097309CC
:104A20008009830986099309B90FB90F1110111074
:104A300063107F10E60FE60FC1104D115C115C1181
:104A4000B811E60FE60FC1112A122A1233123312DF
:104A500035123312331233122A122A123A12331237
:104A600033123A1243236B2354246B2354249E2382
:084A7000BF2354241624222464
:104A780038022808641E140A321E031D791D4E1DB3
:104A88004A1D381D01E200E900EA00B500B600B78A
:104A980000CD008301CC008A0192019401210223F8
:104AA8000224022502260227022A02B300B4006F5C
:104AB800007000818283F090676636353491F1C6C4
:104AC800F431F532F633F73700FF0100010000FF3B
:104AD800FF0000010001FF00E200E900EA00B50064
:104AE800B600B700CD008301CC008A019201940181
:104AF8002102230224022502260227022A02B300E9
:104B0800B4006F00700081828340228112056F0417
:084B1800910414042D044D0466
:00000001FF
